{
  "_format": "hh-sol-artifact-1",
  "contractName": "ArbiTraitoors",
  "sourceName": "contracts/ArbiTraitoors.sol",
  "abi": [
    {
      "inputs": [
        {
          "internalType": "string",
          "name": "name_",
          "type": "string"
        },
        {
          "internalType": "string",
          "name": "symbol_",
          "type": "string"
        },
        {
          "internalType": "uint256",
          "name": "initMintAmount_",
          "type": "uint256"
        },
        {
          "internalType": "uint256",
          "name": "maxSupply_",
          "type": "uint256"
        },
        {
          "internalType": "string",
          "name": "baseURI_",
          "type": "string"
        },
        {
          "internalType": "string",
          "name": "contractURI_",
          "type": "string"
        }
      ],
      "stateMutability": "nonpayable",
      "type": "constructor"
    },
    {
      "inputs": [],
      "name": "AlreadyInitialized",
      "type": "error"
    },
    {
      "inputs": [],
      "name": "ApprovalCallerNotOwnerNorApproved",
      "type": "error"
    },
    {
      "inputs": [],
      "name": "ApprovalQueryForNonexistentToken",
      "type": "error"
    },
    {
      "inputs": [],
      "name": "BalanceQueryForZeroAddress",
      "type": "error"
    },
    {
      "inputs": [
        {
          "internalType": "uint256",
          "name": "newMaxSupply",
          "type": "uint256"
        }
      ],
      "name": "CannotExceedMaxSupplyOfUint64",
      "type": "error"
    },
    {
      "inputs": [
        {
          "internalType": "uint256",
          "name": "totalSupply",
          "type": "uint256"
        }
      ],
      "name": "GlobalIndexOutOfBounds",
      "type": "error"
    },
    {
      "inputs": [
        {
          "internalType": "uint256",
          "name": "paid",
          "type": "uint256"
        },
        {
          "internalType": "uint256",
          "name": "price",
          "type": "uint256"
        }
      ],
      "name": "IncorrectPayment",
      "type": "error"
    },
    {
      "inputs": [],
      "name": "InvalidQueryRange",
      "type": "error"
    },
    {
      "inputs": [],
      "name": "MintERC2309QuantityExceedsLimit",
      "type": "error"
    },
    {
      "inputs": [
        {
          "internalType": "uint256",
          "name": "total",
          "type": "uint256"
        },
        {
          "internalType": "uint256",
          "name": "maxSupply",
          "type": "uint256"
        }
      ],
      "name": "MintQuantityExceedsMaxSupply",
      "type": "error"
    },
    {
      "inputs": [
        {
          "internalType": "uint256",
          "name": "quantity",
          "type": "uint256"
        },
        {
          "internalType": "uint256",
          "name": "limit",
          "type": "uint256"
        }
      ],
      "name": "MintQuantityExceedsTransactionLimit",
      "type": "error"
    },
    {
      "inputs": [],
      "name": "MintToZeroAddress",
      "type": "error"
    },
    {
      "inputs": [],
      "name": "MintZeroQuantity",
      "type": "error"
    },
    {
      "inputs": [],
      "name": "NewOwnerIsZeroAddress",
      "type": "error"
    },
    {
      "inputs": [],
      "name": "NotNextOwner",
      "type": "error"
    },
    {
      "inputs": [],
      "name": "OnlyOwner",
      "type": "error"
    },
    {
      "inputs": [],
      "name": "OwnerQueryForNonexistentToken",
      "type": "error"
    },
    {
      "inputs": [],
      "name": "OwnershipNotInitializedForExtraData",
      "type": "error"
    },
    {
      "inputs": [],
      "name": "ProvenanceHashCannotBeSetAfterMintStarted",
      "type": "error"
    },
    {
      "inputs": [],
      "name": "ReentryLocked",
      "type": "error"
    },
    {
      "inputs": [],
      "name": "TransferCallerNotOwnerNorApproved",
      "type": "error"
    },
    {
      "inputs": [],
      "name": "TransferFromIncorrectOwner",
      "type": "error"
    },
    {
      "inputs": [],
      "name": "TransferToNonERC721ReceiverImplementer",
      "type": "error"
    },
    {
      "inputs": [],
      "name": "TransferToZeroAddress",
      "type": "error"
    },
    {
      "inputs": [],
      "name": "URIQueryForNonexistentToken",
      "type": "error"
    },
    {
      "inputs": [],
      "name": "WithdrawTransferFailed",
      "type": "error"
    },
    {
      "anonymous": false,
      "inputs": [
        {
          "indexed": true,
          "internalType": "address",
          "name": "owner",
          "type": "address"
        },
        {
          "indexed": true,
          "internalType": "address",
          "name": "approved",
          "type": "address"
        },
        {
          "indexed": true,
          "internalType": "uint256",
          "name": "tokenId",
          "type": "uint256"
        }
      ],
      "name": "Approval",
      "type": "event"
    },
    {
      "anonymous": false,
      "inputs": [
        {
          "indexed": true,
          "internalType": "address",
          "name": "owner",
          "type": "address"
        },
        {
          "indexed": true,
          "internalType": "address",
          "name": "operator",
          "type": "address"
        },
        {
          "indexed": false,
          "internalType": "bool",
          "name": "approved",
          "type": "bool"
        }
      ],
      "name": "ApprovalForAll",
      "type": "event"
    },
    {
      "anonymous": false,
      "inputs": [
        {
          "indexed": false,
          "internalType": "string",
          "name": "baseURI",
          "type": "string"
        }
      ],
      "name": "BaseURIUpdated",
      "type": "event"
    },
    {
      "anonymous": false,
      "inputs": [
        {
          "indexed": true,
          "internalType": "uint256",
          "name": "fromTokenId",
          "type": "uint256"
        },
        {
          "indexed": false,
          "internalType": "uint256",
          "name": "toTokenId",
          "type": "uint256"
        },
        {
          "indexed": true,
          "internalType": "address",
          "name": "from",
          "type": "address"
        },
        {
          "indexed": true,
          "internalType": "address",
          "name": "to",
          "type": "address"
        }
      ],
      "name": "ConsecutiveTransfer",
      "type": "event"
    },
    {
      "anonymous": false,
      "inputs": [
        {
          "indexed": false,
          "internalType": "string",
          "name": "newContractURI",
          "type": "string"
        }
      ],
      "name": "ContractURIUpdated",
      "type": "event"
    },
    {
      "anonymous": false,
      "inputs": [
        {
          "indexed": false,
          "internalType": "uint256",
          "name": "newMaxSupply",
          "type": "uint256"
        }
      ],
      "name": "MaxSupplyUpdated",
      "type": "event"
    },
    {
      "anonymous": false,
      "inputs": [
        {
          "indexed": true,
          "internalType": "address",
          "name": "previousOwner",
          "type": "address"
        },
        {
          "indexed": true,
          "internalType": "address",
          "name": "newOwner",
          "type": "address"
        }
      ],
      "name": "OwnershipTransferred",
      "type": "event"
    },
    {
      "anonymous": false,
      "inputs": [
        {
          "indexed": false,
          "internalType": "address",
          "name": "newPotentialAdministrator",
          "type": "address"
        }
      ],
      "name": "PotentialOwnerUpdated",
      "type": "event"
    },
    {
      "anonymous": false,
      "inputs": [
        {
          "indexed": false,
          "internalType": "bytes32",
          "name": "previousHash",
          "type": "bytes32"
        },
        {
          "indexed": false,
          "internalType": "bytes32",
          "name": "newHash",
          "type": "bytes32"
        }
      ],
      "name": "ProvenanceHashUpdated",
      "type": "event"
    },
    {
      "anonymous": false,
      "inputs": [
        {
          "indexed": true,
          "internalType": "uint256",
          "name": "startTokenId",
          "type": "uint256"
        },
        {
          "indexed": true,
          "internalType": "uint256",
          "name": "endTokenId",
          "type": "uint256"
        }
      ],
      "name": "TokenURIUpdated",
      "type": "event"
    },
    {
      "anonymous": false,
      "inputs": [
        {
          "indexed": true,
          "internalType": "address",
          "name": "from",
          "type": "address"
        },
        {
          "indexed": true,
          "internalType": "address",
          "name": "to",
          "type": "address"
        },
        {
          "indexed": true,
          "internalType": "uint256",
          "name": "tokenId",
          "type": "uint256"
        }
      ],
      "name": "Transfer",
      "type": "event"
    },
    {
      "inputs": [],
      "name": "acceptOwnership",
      "outputs": [],
      "stateMutability": "nonpayable",
      "type": "function"
    },
    {
      "inputs": [
        {
          "internalType": "address",
          "name": "to",
          "type": "address"
        },
        {
          "internalType": "uint256",
          "name": "tokenId",
          "type": "uint256"
        }
      ],
      "name": "approve",
      "outputs": [],
      "stateMutability": "nonpayable",
      "type": "function"
    },
    {
      "inputs": [
        {
          "internalType": "address",
          "name": "owner",
          "type": "address"
        }
      ],
      "name": "balanceOf",
      "outputs": [
        {
          "internalType": "uint256",
          "name": "",
          "type": "uint256"
        }
      ],
      "stateMutability": "view",
      "type": "function"
    },
    {
      "inputs": [],
      "name": "baseURI",
      "outputs": [
        {
          "internalType": "string",
          "name": "",
          "type": "string"
        }
      ],
      "stateMutability": "view",
      "type": "function"
    },
    {
      "inputs": [],
      "name": "cancelOwnershipTransfer",
      "outputs": [],
      "stateMutability": "nonpayable",
      "type": "function"
    },
    {
      "inputs": [],
      "name": "contractURI",
      "outputs": [
        {
          "internalType": "string",
          "name": "",
          "type": "string"
        }
      ],
      "stateMutability": "view",
      "type": "function"
    },
    {
      "inputs": [],
      "name": "endTokenId",
      "outputs": [
        {
          "internalType": "uint256",
          "name": "",
          "type": "uint256"
        }
      ],
      "stateMutability": "view",
      "type": "function"
    },
    {
      "inputs": [
        {
          "internalType": "uint256",
          "name": "tokenId",
          "type": "uint256"
        }
      ],
      "name": "explicitOwnershipOf",
      "outputs": [
        {
          "components": [
            {
              "internalType": "address",
              "name": "addr",
              "type": "address"
            },
            {
              "internalType": "uint64",
              "name": "startTimestamp",
              "type": "uint64"
            },
            {
              "internalType": "bool",
              "name": "burned",
              "type": "bool"
            },
            {
              "internalType": "uint24",
              "name": "extraData",
              "type": "uint24"
            }
          ],
          "internalType": "struct IERC721AQueryable.QueryTokenOwnership",
          "name": "",
          "type": "tuple"
        }
      ],
      "stateMutability": "view",
      "type": "function"
    },
    {
      "inputs": [
        {
          "internalType": "uint256[]",
          "name": "tokenIds",
          "type": "uint256[]"
        }
      ],
      "name": "explicitOwnershipsOf",
      "outputs": [
        {
          "components": [
            {
              "internalType": "address",
              "name": "addr",
              "type": "address"
            },
            {
              "internalType": "uint64",
              "name": "startTimestamp",
              "type": "uint64"
            },
            {
              "internalType": "bool",
              "name": "burned",
              "type": "bool"
            },
            {
              "internalType": "uint24",
              "name": "extraData",
              "type": "uint24"
            }
          ],
          "internalType": "struct IERC721AQueryable.QueryTokenOwnership[]",
          "name": "",
          "type": "tuple[]"
        }
      ],
      "stateMutability": "view",
      "type": "function"
    },
    {
      "inputs": [
        {
          "internalType": "address",
          "name": "to_",
          "type": "address"
        },
        {
          "internalType": "uint256",
          "name": "quantity_",
          "type": "uint256"
        }
      ],
      "name": "freeMint",
      "outputs": [],
      "stateMutability": "payable",
      "type": "function"
    },
    {
      "inputs": [
        {
          "internalType": "uint256",
          "name": "tokenId",
          "type": "uint256"
        }
      ],
      "name": "getApproved",
      "outputs": [
        {
          "internalType": "address",
          "name": "",
          "type": "address"
        }
      ],
      "stateMutability": "view",
      "type": "function"
    },
    {
      "inputs": [
        {
          "internalType": "address",
          "name": "owner",
          "type": "address"
        },
        {
          "internalType": "address",
          "name": "operator",
          "type": "address"
        }
      ],
      "name": "isApprovedForAll",
      "outputs": [
        {
          "internalType": "bool",
          "name": "",
          "type": "bool"
        }
      ],
      "stateMutability": "view",
      "type": "function"
    },
    {
      "inputs": [],
      "name": "maxPerTX",
      "outputs": [
        {
          "internalType": "uint256",
          "name": "",
          "type": "uint256"
        }
      ],
      "stateMutability": "view",
      "type": "function"
    },
    {
      "inputs": [],
      "name": "maxSupply",
      "outputs": [
        {
          "internalType": "uint256",
          "name": "",
          "type": "uint256"
        }
      ],
      "stateMutability": "view",
      "type": "function"
    },
    {
      "inputs": [],
      "name": "mint",
      "outputs": [],
      "stateMutability": "payable",
      "type": "function"
    },
    {
      "inputs": [
        {
          "internalType": "uint256",
          "name": "quantity_",
          "type": "uint256"
        }
      ],
      "name": "mint",
      "outputs": [],
      "stateMutability": "payable",
      "type": "function"
    },
    {
      "inputs": [
        {
          "internalType": "address",
          "name": "to_",
          "type": "address"
        },
        {
          "internalType": "uint256",
          "name": "quantity_",
          "type": "uint256"
        }
      ],
      "name": "mintTo",
      "outputs": [],
      "stateMutability": "payable",
      "type": "function"
    },
    {
      "inputs": [
        {
          "internalType": "address",
          "name": "to_",
          "type": "address"
        }
      ],
      "name": "mintTo",
      "outputs": [],
      "stateMutability": "payable",
      "type": "function"
    },
    {
      "inputs": [],
      "name": "name",
      "outputs": [
        {
          "internalType": "string",
          "name": "",
          "type": "string"
        }
      ],
      "stateMutability": "view",
      "type": "function"
    },
    {
      "inputs": [],
      "name": "nextTokenId",
      "outputs": [
        {
          "internalType": "uint256",
          "name": "",
          "type": "uint256"
        }
      ],
      "stateMutability": "view",
      "type": "function"
    },
    {
      "inputs": [],
      "name": "owner",
      "outputs": [
        {
          "internalType": "address",
          "name": "",
          "type": "address"
        }
      ],
      "stateMutability": "view",
      "type": "function"
    },
    {
      "inputs": [
        {
          "internalType": "uint256",
          "name": "tokenId",
          "type": "uint256"
        }
      ],
      "name": "ownerOf",
      "outputs": [
        {
          "internalType": "address",
          "name": "",
          "type": "address"
        }
      ],
      "stateMutability": "view",
      "type": "function"
    },
    {
      "inputs": [],
      "name": "price",
      "outputs": [
        {
          "internalType": "uint256",
          "name": "",
          "type": "uint256"
        }
      ],
      "stateMutability": "view",
      "type": "function"
    },
    {
      "inputs": [],
      "name": "provenanceHash",
      "outputs": [
        {
          "internalType": "bytes32",
          "name": "",
          "type": "bytes32"
        }
      ],
      "stateMutability": "view",
      "type": "function"
    },
    {
      "inputs": [],
      "name": "renounceOwnership",
      "outputs": [],
      "stateMutability": "nonpayable",
      "type": "function"
    },
    {
      "inputs": [
        {
          "internalType": "address",
          "name": "to_",
          "type": "address"
        }
      ],
      "name": "safeMint",
      "outputs": [],
      "stateMutability": "payable",
      "type": "function"
    },
    {
      "inputs": [
        {
          "internalType": "address",
          "name": "to_",
          "type": "address"
        },
        {
          "internalType": "bytes",
          "name": "data_",
          "type": "bytes"
        }
      ],
      "name": "safeMint",
      "outputs": [],
      "stateMutability": "payable",
      "type": "function"
    },
    {
      "inputs": [
        {
          "internalType": "address",
          "name": "to_",
          "type": "address"
        },
        {
          "internalType": "uint256",
          "name": "quantity_",
          "type": "uint256"
        },
        {
          "internalType": "bytes",
          "name": "data_",
          "type": "bytes"
        }
      ],
      "name": "safeMint",
      "outputs": [],
      "stateMutability": "payable",
      "type": "function"
    },
    {
      "inputs": [
        {
          "internalType": "address",
          "name": "to_",
          "type": "address"
        },
        {
          "internalType": "uint256",
          "name": "quantity_",
          "type": "uint256"
        }
      ],
      "name": "safeMint",
      "outputs": [],
      "stateMutability": "payable",
      "type": "function"
    },
    {
      "inputs": [
        {
          "internalType": "address",
          "name": "to_",
          "type": "address"
        },
        {
          "internalType": "uint256",
          "name": "quantity_",
          "type": "uint256"
        },
        {
          "internalType": "bytes",
          "name": "data_",
          "type": "bytes"
        }
      ],
      "name": "safeMintTo",
      "outputs": [],
      "stateMutability": "payable",
      "type": "function"
    },
    {
      "inputs": [
        {
          "internalType": "address",
          "name": "from",
          "type": "address"
        },
        {
          "internalType": "address",
          "name": "to",
          "type": "address"
        },
        {
          "internalType": "uint256",
          "name": "tokenId",
          "type": "uint256"
        }
      ],
      "name": "safeTransferFrom",
      "outputs": [],
      "stateMutability": "nonpayable",
      "type": "function"
    },
    {
      "inputs": [
        {
          "internalType": "address",
          "name": "from",
          "type": "address"
        },
        {
          "internalType": "address",
          "name": "to",
          "type": "address"
        },
        {
          "internalType": "uint256",
          "name": "tokenId",
          "type": "uint256"
        },
        {
          "internalType": "bytes",
          "name": "_data",
          "type": "bytes"
        }
      ],
      "name": "safeTransferFrom",
      "outputs": [],
      "stateMutability": "nonpayable",
      "type": "function"
    },
    {
      "inputs": [
        {
          "internalType": "address",
          "name": "operator",
          "type": "address"
        },
        {
          "internalType": "bool",
          "name": "approved",
          "type": "bool"
        }
      ],
      "name": "setApprovalForAll",
      "outputs": [],
      "stateMutability": "nonpayable",
      "type": "function"
    },
    {
      "inputs": [
        {
          "internalType": "string",
          "name": "newBaseURI",
          "type": "string"
        }
      ],
      "name": "setBaseURI",
      "outputs": [],
      "stateMutability": "nonpayable",
      "type": "function"
    },
    {
      "inputs": [
        {
          "internalType": "string",
          "name": "newContractURI",
          "type": "string"
        }
      ],
      "name": "setContractURI",
      "outputs": [],
      "stateMutability": "nonpayable",
      "type": "function"
    },
    {
      "inputs": [
        {
          "internalType": "uint256",
          "name": "newMaxSupply",
          "type": "uint256"
        }
      ],
      "name": "setMaxSupply",
      "outputs": [],
      "stateMutability": "nonpayable",
      "type": "function"
    },
    {
      "inputs": [
        {
          "internalType": "bytes32",
          "name": "newProvenanceHash",
          "type": "bytes32"
        }
      ],
      "name": "setProvenanceHash",
      "outputs": [],
      "stateMutability": "nonpayable",
      "type": "function"
    },
    {
      "inputs": [],
      "name": "startTokenId",
      "outputs": [
        {
          "internalType": "uint256",
          "name": "",
          "type": "uint256"
        }
      ],
      "stateMutability": "pure",
      "type": "function"
    },
    {
      "inputs": [],
      "name": "supplyCap",
      "outputs": [
        {
          "internalType": "uint256",
          "name": "",
          "type": "uint256"
        }
      ],
      "stateMutability": "view",
      "type": "function"
    },
    {
      "inputs": [
        {
          "internalType": "bytes4",
          "name": "interfaceId",
          "type": "bytes4"
        }
      ],
      "name": "supportsInterface",
      "outputs": [
        {
          "internalType": "bool",
          "name": "",
          "type": "bool"
        }
      ],
      "stateMutability": "view",
      "type": "function"
    },
    {
      "inputs": [],
      "name": "symbol",
      "outputs": [
        {
          "internalType": "string",
          "name": "",
          "type": "string"
        }
      ],
      "stateMutability": "view",
      "type": "function"
    },
    {
      "inputs": [
        {
          "internalType": "uint256",
          "name": "index",
          "type": "uint256"
        }
      ],
      "name": "tokenByIndex",
      "outputs": [
        {
          "internalType": "uint256",
          "name": "",
          "type": "uint256"
        }
      ],
      "stateMutability": "view",
      "type": "function"
    },
    {
      "inputs": [
        {
          "internalType": "address",
          "name": "owner_",
          "type": "address"
        },
        {
          "internalType": "uint256",
          "name": "index",
          "type": "uint256"
        }
      ],
      "name": "tokenOfOwnerByIndex",
      "outputs": [
        {
          "internalType": "uint256",
          "name": "",
          "type": "uint256"
        }
      ],
      "stateMutability": "view",
      "type": "function"
    },
    {
      "inputs": [
        {
          "internalType": "uint256",
          "name": "tokenId",
          "type": "uint256"
        }
      ],
      "name": "tokenURI",
      "outputs": [
        {
          "internalType": "string",
          "name": "",
          "type": "string"
        }
      ],
      "stateMutability": "view",
      "type": "function"
    },
    {
      "inputs": [
        {
          "internalType": "address",
          "name": "owner_",
          "type": "address"
        }
      ],
      "name": "tokensOfOwner",
      "outputs": [
        {
          "internalType": "uint256[]",
          "name": "",
          "type": "uint256[]"
        }
      ],
      "stateMutability": "view",
      "type": "function"
    },
    {
      "inputs": [
        {
          "internalType": "address",
          "name": "owner_",
          "type": "address"
        },
        {
          "internalType": "uint256",
          "name": "start",
          "type": "uint256"
        },
        {
          "internalType": "uint256",
          "name": "stop",
          "type": "uint256"
        }
      ],
      "name": "tokensOfOwnerIn",
      "outputs": [
        {
          "internalType": "uint256[]",
          "name": "",
          "type": "uint256[]"
        }
      ],
      "stateMutability": "view",
      "type": "function"
    },
    {
      "inputs": [],
      "name": "totalSupply",
      "outputs": [
        {
          "internalType": "uint256",
          "name": "",
          "type": "uint256"
        }
      ],
      "stateMutability": "view",
      "type": "function"
    },
    {
      "inputs": [
        {
          "internalType": "address",
          "name": "from",
          "type": "address"
        },
        {
          "internalType": "address",
          "name": "to",
          "type": "address"
        },
        {
          "internalType": "uint256",
          "name": "tokenId",
          "type": "uint256"
        }
      ],
      "name": "transferFrom",
      "outputs": [],
      "stateMutability": "nonpayable",
      "type": "function"
    },
    {
      "inputs": [
        {
          "internalType": "address",
          "name": "newPotentialOwner",
          "type": "address"
        }
      ],
      "name": "transferOwnership",
      "outputs": [],
      "stateMutability": "nonpayable",
      "type": "function"
    },
    {
      "inputs": [],
      "name": "withdraw",
      "outputs": [],
      "stateMutability": "nonpayable",
      "type": "function"
    }
  ],
  "bytecode": "0x60806040526001600e819055600f805460ff191690911790553480156200002557600080fd5b5060405162002c3b38038062002c3b8339810160408190526200004891620002fb565b8585818160026200005a838262000454565b50600362000069828262000454565b505060008055506200007a620000be565b5050600a839055600b6200008f838262000454565b50600c6200009e828262000454565b508315620000b257620000b23385620000eb565b50505050505062000520565b303b15620000de5760405162dc149f60e41b815260040160405180910390fd5b620000e933620001e4565b565b6000546001600160a01b0383166200011557604051622e076360e81b815260040160405180910390fd5b81600003620001375760405163b562e8dd60e01b815260040160405180910390fd5b6113888211156200015b57604051633db1f9af60e01b815260040160405180910390fd5b6001600160a01b03831660008181526005602090815260408083208054680100000000000000018802019055848352600482528083206001871460e11b4260a01b17851790558051600019868801018152905185927fdeaa91b6123d068f5821d0fb0678463d1a8a6079fe8af5de3ce5e896dcf9133d928290030190a40160005550565b505050565b600880546001600160a01b038381166001600160a01b0319831681179093556040519116919082907f8be0079c531659141344cd1fd0a4f28419497f9722a3daafe3b4186f6b6457e090600090a35050565b634e487b7160e01b600052604160045260246000fd5b600082601f8301126200025e57600080fd5b81516001600160401b03808211156200027b576200027b62000236565b604051601f8301601f19908116603f01168101908282118183101715620002a657620002a662000236565b81604052838152602092508683858801011115620002c357600080fd5b600091505b83821015620002e75785820183015181830184015290820190620002c8565b600093810190920192909252949350505050565b60008060008060008060c087890312156200031557600080fd5b86516001600160401b03808211156200032d57600080fd5b6200033b8a838b016200024c565b975060208901519150808211156200035257600080fd5b620003608a838b016200024c565b9650604089015195506060890151945060808901519150808211156200038557600080fd5b620003938a838b016200024c565b935060a0890151915080821115620003aa57600080fd5b50620003b989828a016200024c565b9150509295509295509295565b600181811c90821680620003db57607f821691505b602082108103620003fc57634e487b7160e01b600052602260045260246000fd5b50919050565b601f821115620001df57600081815260208120601f850160051c810160208610156200042b5750805b601f850160051c820191505b818110156200044c5782815560010162000437565b505050505050565b81516001600160401b0381111562000470576200047062000236565b6200048881620004818454620003c6565b8462000402565b602080601f831160018114620004c05760008415620004a75750858301515b600019600386901b1c1916600185901b1785556200044c565b600085815260208120601f198616915b82811015620004f157888601518255948401946001909101908401620004d0565b5085821015620005105787850151600019600388901b60f8161c191681555b5050505050600190811b01905550565b61270b80620005306000396000f3fe6080604052600436106102695760003560e01c8063785bb03e11610145578063a1448194116100bc578063a14481941461065f578063a22cb46514610672578063a40d36cd14610692578063b88d4fde146106a7578063c23dc68f146106c7578063c6ab67a3146106f4578063c87b56dd14610709578063d1a26ed3146105b4578063d5abeb01146105b4578063e6798baa14610729578063e8a3d4851461073d578063e985e9c514610752578063f2fde38b1461079b57600080fd5b8063785bb03e1461054157806379ba5097146105545780638462151c146105695780638832e6e3146105065780638da5cb5b146105965780638f770ad0146105b4578063938e3d7b146105c957806395d89b41146105e95780639883566e146105fe57806399a2557a14610611578063a035b1fe14610631578063a0712d681461064c57600080fd5b806342842e0e116101e457806342842e0e146103dc578063449a52f8146103fc5780634f6ccce71461040f57806355f804b31461042f5780635bbb21771461044f5780636352211e1461047c5780636c0360eb1461049c5780636f8b44b0146104b157806370a08231146104d1578063715018a6146104f157806372108fa214610506578063755edd171461051957806375794a3c1461052c57600080fd5b806301ffc9a71461026e57806306fdde03146102a3578063081812fc146102c5578063095ea7b3146102f2578063099b6bfa146103145780631249c58b1461033457806318160ddd1461033c57806323452b9c1461035f57806323b872dd146103745780632f745c59146103945780633ccfd60b146103b457806340d097c3146103c9575b600080fd5b34801561027a57600080fd5b5061028e610289366004611ed1565b6107bb565b60405190151581526020015b60405180910390f35b3480156102af57600080fd5b506102b86107e6565b60405161029a9190611f3e565b3480156102d157600080fd5b506102e56102e0366004611f51565b610878565b60405161029a9190611f6a565b3480156102fe57600080fd5b5061031261030d366004611f9a565b6108bc565b005b34801561032057600080fd5b5061031261032f366004611f51565b6108cc565b61031261093b565b34801561034857600080fd5b50610351610993565b60405190815260200161029a565b34801561036b57600080fd5b506103126109a7565b34801561038057600080fd5b5061031261038f366004611fc4565b6109e8565b3480156103a057600080fd5b506103516103af366004611f9a565b610b6f565b3480156103c057600080fd5b50610312610c1f565b6103126103d7366004612000565b610c93565b3480156103e857600080fd5b506103126103f7366004611fc4565b610d54565b61031261040a366004611f9a565b610d74565b34801561041b57600080fd5b5061035161042a366004611f51565b610e10565b34801561043b57600080fd5b5061031261044a36600461201b565b610e48565b34801561045b57600080fd5b5061046f61046a36600461208c565b610e8f565b60405161029a919061212a565b34801561048857600080fd5b506102e5610497366004611f51565b610f41565b3480156104a857600080fd5b506102b8610f4c565b3480156104bd57600080fd5b506103126104cc366004611f51565b610f5b565b3480156104dd57600080fd5b506103516104ec366004612000565b610fca565b3480156104fd57600080fd5b50610312611018565b61031261051436600461220e565b61102a565b610312610527366004612000565b6110c9565b34801561053857600080fd5b50600054610351565b61031261054f366004612264565b61112d565b34801561056057600080fd5b50610312611192565b34801561057557600080fd5b50610589610584366004612000565b6111fe565b60405161029a91906122b1565b3480156105a257600080fd5b506008546001600160a01b03166102e5565b3480156105c057600080fd5b50600a54610351565b3480156105d557600080fd5b506103126105e436600461201b565b6112e4565b3480156105f557600080fd5b506102b861132b565b61031261060c366004611f9a565b61133a565b34801561061d57600080fd5b5061058961062c3660046122e9565b61135c565b34801561063d57600080fd5b506103516611c37937e0800081565b61031261065a366004611f51565b6114dd565b61031261066d366004611f9a565b611549565b34801561067e57600080fd5b5061031261068d36600461231c565b6115c7565b34801561069e57600080fd5b50610351600a81565b3480156106b357600080fd5b506103126106c2366004612358565b611633565b3480156106d357600080fd5b506106e76106e2366004611f51565b611677565b60405161029a91906123bf565b34801561070057600080fd5b50600d54610351565b34801561071557600080fd5b506102b8610724366004611f51565b6117a6565b34801561073557600080fd5b506000610351565b34801561074957600080fd5b506102b8611829565b34801561075e57600080fd5b5061028e61076d3660046123cd565b6001600160a01b03918216600090815260076020908152604080832093909416825291909152205460ff1690565b3480156107a757600080fd5b506103126107b6366004612000565b611838565b60006001600160e01b0319821663780e9d6360e01b14806107e057506107e0826118a0565b92915050565b6060600280546107f590612400565b80601f016020809104026020016040519081016040528092919081815260200182805461082190612400565b801561086e5780601f106108435761010080835404028352916020019161086e565b820191906000526020600020905b81548152906001019060200180831161085157829003601f168201915b5050505050905090565b6000610883826118ee565b6108a0576040516333d1c03960e21b815260040160405180910390fd5b506000908152600660205260409020546001600160a01b031690565b6108c882826001611915565b5050565b6108d46119c1565b600054156108f55760405163e03264af60e01b815260040160405180910390fd5b600d80549082905560408051828152602081018490527f7c22004198bf87da0f0dab623c72e66ca1200f4454aa3b9ca30f436275428b7c91015b60405180910390a15050565b6611c37937e0800034101561097757604051630d35e92160e01b81523460048201526611c37937e0800060248201526044015b60405180910390fd5b6109913361098c6611c37937e0800034612450565b6119ec565b565b60006109a26001546000540390565b905090565b6109af6119c1565b600980546001600160a01b0319169055604051600080516020612696833981519152906109de90600090611f6a565b60405180910390a1565b60006109f382611a6b565b9050836001600160a01b0316816001600160a01b031614610a265760405162a1148160e81b815260040160405180910390fd5b60008281526006602052604090208054338082146001600160a01b03881690911417610a7357610a56863361076d565b610a7357604051632ce44b5f60e11b815260040160405180910390fd5b6001600160a01b038516610a9a57604051633a954ecd60e21b815260040160405180910390fd5b8015610aa557600082555b6001600160a01b03868116600090815260056020526040808220805460001901905591871681522080546001019055610ae285600160e11b611ad2565b600085815260046020526040812091909155600160e11b84169003610b3757600184016000818152600460205260408120549003610b35576000548114610b355760008181526004602052604090208490555b505b83856001600160a01b0316876001600160a01b03166000805160206126b683398151915260405160405180910390a45b505050505050565b600080808080610b7e87610fca565b905080861115610ba457604051633c10d53560e11b81526004810182905260240161096e565b610bac611e94565b60005b828514610c1257610bbf81611ae7565b91508160400151610c0a5781516001600160a01b031615610bdf57815193505b886001600160a01b0316846001600160a01b031603610c0a5780945085600101955087860315610c12575b600101610baf565b5093979650505050505050565b610c276119c1565b604051600090339047908381818185875af1925050503d8060008114610c69576040519150601f19603f3d011682016040523d82523d6000602084013e610c6e565b606091505b5050905080610c90576040516369a4751b60e01b815260040160405180910390fd5b50565b6611c37937e08000803414610cc457604051630d35e92160e01b81523460048201526024810182905260440161096e565b6001600f5460ff166001811115610cdd57610cdd612472565b03610cf157600f805460ff19169055610d0a565b6040516304b28ded60e11b815260040160405180910390fd5b610d2582600160405180602001604052806000815250611b07565b6000600f5460ff166001811115610d3e57610d3e612472565b03610cf1575050600f805460ff19166001179055565b610d6f83838360405180602001604052806000815250611633565b505050565b610d85816611c37937e08000612488565b803414610dae57604051630d35e92160e01b81523460048201526024810182905260440161096e565b6001600f5460ff166001811115610dc757610dc7612472565b03610cf157600f805460ff19169055610de083836119ec565b6000600f5460ff166001811115610df957610df9612472565b03610cf1575050600f805460ff1916600117905550565b600080610e1b610993565b905080831115610e4157604051633c10d53560e11b81526004810182905260240161096e565b5090919050565b610e506119c1565b600b610e5d8284836124e5565b507f6741b2fc379fad678116fe3d4d4b9a1a184ab53ba36b86ad0fa66340b1ab41ad828260405161092f9291906125a4565b6060816000816001600160401b03811115610eac57610eac61216c565b604051908082528060200260200182016040528015610ee557816020015b610ed2611e94565b815260200190600190039081610eca5790505b50905060005b828114610f3857610f13868683818110610f0757610f076125d3565b90506020020135611677565b828281518110610f2557610f256125d3565b6020908102919091010152600101610eeb565b50949350505050565b60006107e082611a6b565b6060600b80546107f590612400565b610f636119c1565b6001600160401b03811115610f8e5760405163b43e913760e01b81526004810182905260240161096e565b600a8190556040518181527f7810bd47de260c3e9ee10061cf438099dd12256c79485f12f94dbccc981e806c906020015b60405180910390a150565b60006001600160a01b038216610ff3576040516323d3ad8160e21b815260040160405180910390fd5b506001600160a01b03166000908152600560205260409020546001600160401b031690565b6110206119c1565b6109916000611b62565b61103b826611c37937e08000612488565b80341461106457604051630d35e92160e01b81523460048201526024810182905260440161096e565b6001600f5460ff16600181111561107d5761107d612472565b03610cf157600f805460ff19169055611097848484611b07565b6000600f5460ff1660018111156110b0576110b0612472565b03610cf157600f805460ff191660011790555b50505050565b6611c37937e080008034146110fa57604051630d35e92160e01b81523460048201526024810182905260440161096e565b6001600f5460ff16600181111561111357611113612472565b03610cf157600f805460ff19169055610d258260016119ec565b6611c37937e0800080341461115e57604051630d35e92160e01b81523460048201526024810182905260440161096e565b6001600f5460ff16600181111561117757611177612472565b03610cf157600f805460ff19169055610de083600184611b07565b6009546001600160a01b03163381146111be57604051636b7584e760e11b815260040160405180910390fd5b600980546001600160a01b0319169055604051600080516020612696833981519152906111ed90600090611f6a565b60405180910390a1610c9081611b62565b6060600080600061120e85610fca565b90506000816001600160401b0381111561122a5761122a61216c565b604051908082528060200260200182016040528015611253578160200160208202803683370190505b50905061125e611e94565b60005b8386146112d85761127181611ae7565b915081604001516112d05781516001600160a01b03161561129157815194505b876001600160a01b0316856001600160a01b0316036112d057808387806001019850815181106112c3576112c36125d3565b6020026020010181815250505b600101611261565b50909695505050505050565b6112ec6119c1565b600c6112f98284836124e5565b507f905d981207a7d0b6c62cc46ab0be2a076d0298e4a86d0ab79882dbd01ac37378828260405161092f9291906125a4565b6060600380546107f590612400565b6113426119c1565b6108c8828260405180602001604052806000815250611b07565b606081831061137e57604051631960ccad60e11b815260040160405180910390fd5b60008061138a60005490565b905080841115611398578093505b60006113a387610fca565b9050848610156113c257858503818110156113bc578091505b506113c6565b5060005b6000816001600160401b038111156113e0576113e061216c565b604051908082528060200260200182016040528015611409578160200160208202803683370190505b5090508160000361141f5793506114d692505050565b600061142a88611677565b90506000816040015161143b575080515b611443611e94565b895b8981141580156114555750858814155b156114ca5761146381611ae7565b915081604001516114c25781516001600160a01b03161561148357815192505b8b6001600160a01b0316836001600160a01b0316036114c257808589806001019a50815181106114b5576114b56125d3565b6020026020010181815250505b600101611445565b50505093815293505050505b9392505050565b6114ee816611c37937e08000612488565b80341461151757604051630d35e92160e01b81523460048201526024810182905260440161096e565b6001600f5460ff16600181111561153057611530612472565b03610cf157600f805460ff19169055610d2533836119ec565b61155a816611c37937e08000612488565b80341461158357604051630d35e92160e01b81523460048201526024810182905260440161096e565b6001600f5460ff16600181111561159c5761159c612472565b03610cf157600f805460ff19169055604080516020810190915260008152610de09084908490611b07565b3360008181526007602090815260408083206001600160a01b03871680855290835292819020805460ff191686151590811790915590519081529192917f17307eab39ab6107e8899845ad3d59bd9653f200f220920489ca2b5937696c31910160405180910390a35050565b61163e8484846109e8565b6001600160a01b0383163b156110c35761165a84848484611bb4565b6110c3576040516368d2bf6b60e11b815260040160405180910390fd5b61167f611e94565b611687611e94565b60005483106116e257604051806080016040528082600001516001600160a01b0316815260200182602001516001600160401b03168152602001826040015115158152602001826060015162ffffff16815250915050919050565b6116eb83611ae7565b905080604001511561174957604051806080016040528082600001516001600160a01b0316815260200182602001516001600160401b03168152602001826040015115158152602001826060015162ffffff16815250915050919050565b61175283611c9f565b9050604051806080016040528082600001516001600160a01b0316815260200182602001516001600160401b03168152602001826040015115158152602001826060015162ffffff16815250915050919050565b60606117b1826118ee565b6117ce57604051630a14c4b560e41b815260040160405180910390fd5b60006117d8610f4c565b905080516000036117f857604051806020016040528060008152506114d6565b8061180284611cb8565b6040516020016118139291906125e9565b6040516020818303038152906040529392505050565b6060600c80546107f590612400565b6118406119c1565b6001600160a01b03811661186757604051633a247dd760e11b815260040160405180910390fd5b600980546001600160a01b0319166001600160a01b03831617905560405160008051602061269683398151915290610fbf908390611f6a565b60006301ffc9a760e01b6001600160e01b0319831614806118d157506380ac58cd60e01b6001600160e01b03198316145b806107e05750506001600160e01b031916635b5e139f60e01b1490565b60008054821080156107e0575050600090815260046020526040902054600160e01b161590565b600061192083610f41565b90508180156119385750336001600160a01b03821614155b1561196457611947813361076d565b611964576040516367d9dca160e11b815260040160405180910390fd5b60008381526006602052604080822080546001600160a01b0319166001600160a01b0388811691821790925591518693918516917f8c5be1e5ebec7d5bd14f71427d1e84f3dd0314c0f7b2291e5b200ac8c7c3b92591a450505050565b6008546001600160a01b0316331461099157604051635fc483c560e01b815260040160405180910390fd5b600a54816119f8610993565b611a029190612628565b1115611a3557611a10610993565b600a5460405163384b48c560e21b81526004810192909252602482015260440161096e565b600a811115611a615760405163bd973cbd60e01b815260048101829052600a602482015260440161096e565b6108c88282611cfc565b600081600054811015611ab95760008181526004602052604081205490600160e01b82169003611ab7575b806000036114d6575060001901600081815260046020526040902054611a96565b505b604051636f96cda160e11b815260040160405180910390fd5b4260a01b176001600160a01b03919091161790565b611aef611e94565b6000828152600460205260409020546107e090611de4565b600a5482611b13610993565b611b1d9190612628565b1115611b2b57611a10610993565b600a821115611b575760405163bd973cbd60e01b815260048101839052600a602482015260440161096e565b610d6f838383611e27565b600880546001600160a01b038381166001600160a01b0319831681179093556040519116919082907f8be0079c531659141344cd1fd0a4f28419497f9722a3daafe3b4186f6b6457e090600090a35050565b604051630a85bd0160e11b81526000906001600160a01b0385169063150b7a0290611be990339089908890889060040161263b565b6020604051808303816000875af1925050508015611c24575060408051601f3d908101601f19168201909252611c2191810190612678565b60015b611c82573d808015611c52576040519150601f19603f3d011682016040523d82523d6000602084013e611c57565b606091505b508051600003611c7a576040516368d2bf6b60e11b815260040160405180910390fd5b805181602001fd5b6001600160e01b031916630a85bd0160e11b149050949350505050565b611ca7611e94565b6107e0611cb383611a6b565b611de4565b606060a06040510180604052602081039150506000815280825b600183039250600a81066030018353600a900480611cd25750819003601f19909101908152919050565b6000805490829003611d215760405163b562e8dd60e01b815260040160405180910390fd5b6001600160a01b038316600090815260056020526040902080546001600160401b018402019055611d58836001841460e11b611ad2565b6000828152600460205260408120919091556001600160a01b0384169083830190839083906000805160206126b68339815191528180a4600183015b818114611dba57808360006000805160206126b6833981519152600080a4600101611d94565b5081600003611ddb57604051622e076360e81b815260040160405180910390fd5b60005550505050565b611dec611e94565b6001600160a01b03821681526001600160401b0360a083901c166020820152600160e01b82161515604082015260e89190911c606082015290565b611e318383611cfc565b6001600160a01b0383163b15610d6f576000548281035b611e5b6000868380600101945086611bb4565b611e78576040516368d2bf6b60e11b815260040160405180910390fd5b818110611e48578160005414611e8d57600080fd5b5050505050565b60408051608081018252600080825260208201819052918101829052606081019190915290565b6001600160e01b031981168114610c9057600080fd5b600060208284031215611ee357600080fd5b81356114d681611ebb565b60005b83811015611f09578181015183820152602001611ef1565b50506000910152565b60008151808452611f2a816020860160208601611eee565b601f01601f19169290920160200192915050565b6020815260006114d66020830184611f12565b600060208284031215611f6357600080fd5b5035919050565b6001600160a01b0391909116815260200190565b80356001600160a01b0381168114611f9557600080fd5b919050565b60008060408385031215611fad57600080fd5b611fb683611f7e565b946020939093013593505050565b600080600060608486031215611fd957600080fd5b611fe284611f7e565b9250611ff060208501611f7e565b9150604084013590509250925092565b60006020828403121561201257600080fd5b6114d682611f7e565b6000806020838503121561202e57600080fd5b82356001600160401b038082111561204557600080fd5b818501915085601f83011261205957600080fd5b81358181111561206857600080fd5b86602082850101111561207a57600080fd5b60209290920196919550909350505050565b6000806020838503121561209f57600080fd5b82356001600160401b03808211156120b657600080fd5b818501915085601f8301126120ca57600080fd5b8135818111156120d957600080fd5b8660208260051b850101111561207a57600080fd5b80516001600160a01b031682526020808201516001600160401b03169083015260408082015115159083015260609081015162ffffff16910152565b6020808252825182820181905260009190848201906040850190845b818110156112d8576121598385516120ee565b9284019260809290920191600101612146565b634e487b7160e01b600052604160045260246000fd5b600082601f83011261219357600080fd5b81356001600160401b03808211156121ad576121ad61216c565b604051601f8301601f19908116603f011681019082821181831017156121d5576121d561216c565b816040528381528660208588010111156121ee57600080fd5b836020870160208301376000602085830101528094505050505092915050565b60008060006060848603121561222357600080fd5b61222c84611f7e565b92506020840135915060408401356001600160401b0381111561224e57600080fd5b61225a86828701612182565b9150509250925092565b6000806040838503121561227757600080fd5b61228083611f7e565b915060208301356001600160401b0381111561229b57600080fd5b6122a785828601612182565b9150509250929050565b6020808252825182820181905260009190848201906040850190845b818110156112d8578351835292840192918401916001016122cd565b6000806000606084860312156122fe57600080fd5b61230784611f7e565b95602085013595506040909401359392505050565b6000806040838503121561232f57600080fd5b61233883611f7e565b91506020830135801515811461234d57600080fd5b809150509250929050565b6000806000806080858703121561236e57600080fd5b61237785611f7e565b935061238560208601611f7e565b92506040850135915060608501356001600160401b038111156123a757600080fd5b6123b387828801612182565b91505092959194509250565b608081016107e082846120ee565b600080604083850312156123e057600080fd5b6123e983611f7e565b91506123f760208401611f7e565b90509250929050565b600181811c9082168061241457607f821691505b60208210810361243457634e487b7160e01b600052602260045260246000fd5b50919050565b634e487b7160e01b600052601160045260246000fd5b60008261246d57634e487b7160e01b600052601260045260246000fd5b500490565b634e487b7160e01b600052602160045260246000fd5b80820281158282048414176107e0576107e061243a565b601f821115610d6f57600081815260208120601f850160051c810160208610156124c65750805b601f850160051c820191505b81811015610b67578281556001016124d2565b6001600160401b038311156124fc576124fc61216c565b6125108361250a8354612400565b8361249f565b6000601f841160018114612544576000851561252c5750838201355b600019600387901b1c1916600186901b178355611e8d565b600083815260209020601f19861690835b828110156125755786850135825560209485019460019092019101612555565b50868210156125925760001960f88860031b161c19848701351681555b505060018560011b0183555050505050565b60208152816020820152818360408301376000818301604090810191909152601f909201601f19160101919050565b634e487b7160e01b600052603260045260246000fd5b600083516125fb818460208801611eee565b83519083019061260f818360208801611eee565b64173539b7b760d91b9101908152600501949350505050565b808201808211156107e0576107e061243a565b6001600160a01b038581168252841660208201526040810183905260806060820181905260009061266e90830184611f12565b9695505050505050565b60006020828403121561268a57600080fd5b81516114d681611ebb56fe11a3cf439fb225bfe74225716b6774765670ec1060e3796802e62139d69974daddf252ad1be2c89b69c2b068fc378daa952ba7f163c4a11628f55a4df523b3efa2646970667358221220b974a9ed0b9d9853d291dee3adc15e7eba2c422256ac9c452ca2871fe765c58f64736f6c63430008120033",
  "linkReferences": {},
  "deployedLinkReferences": {}
}