{
  "_format": "hh-sol-artifact-1",
  "contractName": "ProxyRegistryMock",
  "sourceName": "contracts/mocks/ProxyRegistryMock.sol",
  "abi": [
    {
      "anonymous": false,
      "inputs": [
        {
          "indexed": true,
          "internalType": "address",
          "name": "previousOwner",
          "type": "address"
        },
        {
          "indexed": true,
          "internalType": "address",
          "name": "newOwner",
          "type": "address"
        }
      ],
      "name": "OwnershipTransferred",
      "type": "event"
    },
    {
      "inputs": [],
      "name": "owner",
      "outputs": [
        {
          "internalType": "address",
          "name": "",
          "type": "address"
        }
      ],
      "stateMutability": "view",
      "type": "function"
    },
    {
      "inputs": [
        {
          "internalType": "address",
          "name": "",
          "type": "address"
        }
      ],
      "name": "proxies",
      "outputs": [
        {
          "internalType": "address",
          "name": "",
          "type": "address"
        }
      ],
      "stateMutability": "view",
      "type": "function"
    },
    {
      "inputs": [],
      "name": "renounceOwnership",
      "outputs": [],
      "stateMutability": "nonpayable",
      "type": "function"
    },
    {
      "inputs": [
        {
          "internalType": "address",
          "name": "_address",
          "type": "address"
        },
        {
          "internalType": "address",
          "name": "_proxyForAddress",
          "type": "address"
        }
      ],
      "name": "setProxy",
      "outputs": [],
      "stateMutability": "nonpayable",
      "type": "function"
    },
    {
      "inputs": [
        {
          "internalType": "address",
          "name": "newOwner",
          "type": "address"
        }
      ],
      "name": "transferOwnership",
      "outputs": [],
      "stateMutability": "nonpayable",
      "type": "function"
    }
  ],
  "bytecode": "0x608060405234801561001057600080fd5b5061001a3361001f565b61006f565b600080546001600160a01b038381166001600160a01b0319831681178455604051919092169283917f8be0079c531659141344cd1fd0a4f28419497f9722a3daafe3b4186f6b6457e09190a35050565b6103068061007e6000396000f3fe608060405234801561001057600080fd5b50600436106100575760003560e01c8063715018a61461005c5780638da5cb5b14610066578063a9d4630c1461008a578063c45527911461009d578063f2fde38b146100c6575b600080fd5b6100646100d9565b005b61006e6100ed565b6040516001600160a01b03909116815260200160405180910390f35b61006461009836600461027b565b6100fc565b61006e6100ab3660046102ae565b6001602052600090815260409020546001600160a01b031681565b6100646100d43660046102ae565b610132565b6100e16101b0565b6100eb600061020f565b565b6000546001600160a01b031690565b6101046101b0565b6001600160a01b03918216600090815260016020526040902080546001600160a01b03191691909216179055565b61013a6101b0565b6001600160a01b0381166101a45760405162461bcd60e51b815260206004820152602660248201527f4f776e61626c653a206e6577206f776e657220697320746865207a65726f206160448201526564647265737360d01b60648201526084015b60405180910390fd5b6101ad8161020f565b50565b336101b96100ed565b6001600160a01b0316146100eb5760405162461bcd60e51b815260206004820181905260248201527f4f776e61626c653a2063616c6c6572206973206e6f7420746865206f776e6572604482015260640161019b565b600080546001600160a01b038381166001600160a01b0319831681178455604051919092169283917f8be0079c531659141344cd1fd0a4f28419497f9722a3daafe3b4186f6b6457e09190a35050565b80356001600160a01b038116811461027657600080fd5b919050565b6000806040838503121561028e57600080fd5b6102978361025f565b91506102a56020840161025f565b90509250929050565b6000602082840312156102c057600080fd5b6102c98261025f565b939250505056fea2646970667358221220eb6fea53057dd5172d637ff9a8956b9aa50d4f5a2f76cac1f6b1a51ab855c36c64736f6c63430008120033",
  "linkReferences": {},
  "deployedLinkReferences": {}
}